:100000000C9472000C947E000C947E000C947E0084
:100010000C947E000C947E000C947E000C947E0068
:100020000C947E000C947E000C947E000C947E0058
:100030000C947E000C947E000C947E000C947E0048
:100040000C947E000C947E000C947E000C947E0038
:100050000C947E000C947E000C947E000C947E0028
:100060000C947E000C947E000C947E000C947E0018
:100070000C947E000C947E000C947E000C947E0008
:100080000C947E000C947E000C947E000C947E00F8
:100090000C947E000C947E000C947E000C947E00E8
:1000A0000C947E000C947E000C947E000C947E00D8
:1000B0000C947E000C947E000C947E000C947E00C8
:1000C0000C947E000C947E000C947E000C947E00B8
:1000D0000C947E000C947E000C947E000C947E00A8
:1000E0000C947E0011241FBECFEFD1E2DEBFCDBF46
:1000F00000E00CBF0E94A1000C94EB000C940000E7
:1001000022E380E090E0FC013197F1F7FC013197A8
:10011000F1F7FC013197F1F72150A9F7089582EA30
:10012000809380008BE180938100269A1092850055
:100130001092840087E893E1909387008093860073
:10014000089582EA809380008BE180938100269A53
:10015000109285001092840087E893E190938700C5
:1001600080938600A6EAB0E080E090E068E870E066
:1001700044EC50E0B0938B00A0938A0022E3FC0192
:100180003197F1F7FC013197F1F7FC013197F1F765
:100190002150A9F770938B0060938A0022E3FC0141
:1001A0003197F1F7FC013197F1F7FC013197F1F745
:1001B0002150A9F750938B0040938A0022E3FC0161
:1001C0003197F1F7FC013197F1F7FC013197F1F725
:0A01D0002150A9F7CFCFF894FFCF1C
:00000001FF
